{
  "_format": "hh-sol-artifact-1",
  "contractName": "Marketplace",
  "sourceName": "src/backend/contracts/Marketplace.sol",
  "abi": [
    {
      "inputs": [
        {
          "internalType": "uint256",
          "name": "_feePercent",
          "type": "uint256"
        }
      ],
      "stateMutability": "nonpayable",
      "type": "constructor"
    },
    {
      "anonymous": false,
      "inputs": [
        {
          "indexed": false,
          "internalType": "uint256",
          "name": "itemId",
          "type": "uint256"
        },
        {
          "indexed": true,
          "internalType": "address",
          "name": "nft",
          "type": "address"
        },
        {
          "indexed": false,
          "internalType": "uint256",
          "name": "tokenId",
          "type": "uint256"
        },
        {
          "indexed": false,
          "internalType": "uint256",
          "name": "price",
          "type": "uint256"
        },
        {
          "indexed": true,
          "internalType": "address",
          "name": "seller",
          "type": "address"
        },
        {
          "indexed": true,
          "internalType": "address",
          "name": "buyer",
          "type": "address"
        },
        {
          "indexed": false,
          "internalType": "address",
          "name": "owner",
          "type": "address"
        }
      ],
      "name": "Bought",
      "type": "event"
    },
    {
      "anonymous": false,
      "inputs": [
        {
          "indexed": false,
          "internalType": "uint256",
          "name": "itemId",
          "type": "uint256"
        },
        {
          "indexed": true,
          "internalType": "address",
          "name": "nft",
          "type": "address"
        },
        {
          "indexed": false,
          "internalType": "uint256",
          "name": "tokenId",
          "type": "uint256"
        },
        {
          "indexed": false,
          "internalType": "uint256",
          "name": "price",
          "type": "uint256"
        },
        {
          "indexed": true,
          "internalType": "address",
          "name": "seller",
          "type": "address"
        }
      ],
      "name": "Offered",
      "type": "event"
    },
    {
      "anonymous": false,
      "inputs": [
        {
          "indexed": false,
          "internalType": "uint256",
          "name": "itemId",
          "type": "uint256"
        },
        {
          "indexed": false,
          "internalType": "uint256",
          "name": "price",
          "type": "uint256"
        },
        {
          "indexed": true,
          "internalType": "address",
          "name": "seller",
          "type": "address"
        }
      ],
      "name": "PriceUpdated",
      "type": "event"
    },
    {
      "inputs": [],
      "name": "feeAccount",
      "outputs": [
        {
          "internalType": "address payable",
          "name": "",
          "type": "address"
        }
      ],
      "stateMutability": "view",
      "type": "function"
    },
    {
      "inputs": [],
      "name": "feePercent",
      "outputs": [
        {
          "internalType": "uint256",
          "name": "",
          "type": "uint256"
        }
      ],
      "stateMutability": "view",
      "type": "function"
    },
    {
      "inputs": [
        {
          "internalType": "uint256",
          "name": "_itemId",
          "type": "uint256"
        }
      ],
      "name": "getItemOwner",
      "outputs": [
        {
          "internalType": "address",
          "name": "",
          "type": "address"
        }
      ],
      "stateMutability": "view",
      "type": "function"
    },
    {
      "inputs": [
        {
          "internalType": "uint256",
          "name": "_itemId",
          "type": "uint256"
        }
      ],
      "name": "getTotalPrice",
      "outputs": [
        {
          "internalType": "uint256",
          "name": "",
          "type": "uint256"
        }
      ],
      "stateMutability": "view",
      "type": "function"
    },
    {
      "inputs": [
        {
          "internalType": "uint256",
          "name": "_itemId",
          "type": "uint256"
        }
      ],
      "name": "isItemSold",
      "outputs": [
        {
          "internalType": "bool",
          "name": "",
          "type": "bool"
        }
      ],
      "stateMutability": "view",
      "type": "function"
    },
    {
      "inputs": [],
      "name": "itemCount",
      "outputs": [
        {
          "internalType": "uint256",
          "name": "",
          "type": "uint256"
        }
      ],
      "stateMutability": "view",
      "type": "function"
    },
    {
      "inputs": [
        {
          "internalType": "uint256",
          "name": "",
          "type": "uint256"
        }
      ],
      "name": "items",
      "outputs": [
        {
          "internalType": "uint256",
          "name": "itemId",
          "type": "uint256"
        },
        {
          "internalType": "contract IERC721",
          "name": "nft",
          "type": "address"
        },
        {
          "internalType": "uint256",
          "name": "tokenId",
          "type": "uint256"
        },
        {
          "internalType": "uint256",
          "name": "price",
          "type": "uint256"
        },
        {
          "internalType": "address payable",
          "name": "seller",
          "type": "address"
        },
        {
          "internalType": "bool",
          "name": "sold",
          "type": "bool"
        },
        {
          "internalType": "address",
          "name": "owner",
          "type": "address"
        }
      ],
      "stateMutability": "view",
      "type": "function"
    },
    {
      "inputs": [
        {
          "internalType": "contract IERC721",
          "name": "_nft",
          "type": "address"
        },
        {
          "internalType": "uint256",
          "name": "_tokenId",
          "type": "uint256"
        },
        {
          "internalType": "uint256",
          "name": "_price",
          "type": "uint256"
        }
      ],
      "name": "makeItem",
      "outputs": [],
      "stateMutability": "nonpayable",
      "type": "function"
    },
    {
      "inputs": [
        {
          "internalType": "uint256",
          "name": "_itemId",
          "type": "uint256"
        }
      ],
      "name": "purchaseItem",
      "outputs": [],
      "stateMutability": "payable",
      "type": "function"
    },
    {
      "inputs": [
        {
          "internalType": "uint256",
          "name": "_itemId",
          "type": "uint256"
        },
        {
          "internalType": "uint256",
          "name": "_newPrice",
          "type": "uint256"
        }
      ],
      "name": "relistItem",
      "outputs": [],
      "stateMutability": "nonpayable",
      "type": "function"
    },
    {
      "inputs": [
        {
          "internalType": "uint256",
          "name": "_itemId",
          "type": "uint256"
        },
        {
          "internalType": "uint256",
          "name": "_newPrice",
          "type": "uint256"
        }
      ],
      "name": "updatePrice",
      "outputs": [],
      "stateMutability": "nonpayable",
      "type": "function"
    }
  ],
  "bytecode": "0x60c06040523480156200001157600080fd5b5060405162001bd638038062001bd683398181016040528101906200003791906200009c565b60016000819055503373ffffffffffffffffffffffffffffffffffffffff1660808173ffffffffffffffffffffffffffffffffffffffff1660601b815250508060a0818152505050620000ec565b6000815190506200009681620000d2565b92915050565b600060208284031215620000af57600080fd5b6000620000bf8482850162000085565b91505092915050565b6000819050919050565b620000dd81620000c8565b8114620000e957600080fd5b50565b60805160601c60a051611ab3620001236000396000818161066001526109a10152600081816103450152610b810152611ab36000f3fe60806040526004361061009c5760003560e01c806382367b2d1161006457806382367b2d14610188578063bfb231d2146101b1578063ca7dd375146101f4578063d38ea5bf14610231578063f852e0c81461024d578063fa00afc71461028a5761009c565b80631d1440fd146100a157806365e17c9d146100de5780636bfb0d011461010957806375ad1b12146101345780637fd6f15c1461015d575b600080fd5b3480156100ad57600080fd5b506100c860048036038101906100c3919061122e565b6102b3565b6040516100d591906113f6565b60405180910390f35b3480156100ea57600080fd5b506100f3610343565b6040516101009190611411565b60405180910390f35b34801561011557600080fd5b5061011e610367565b60405161012b919061157e565b60405180910390f35b34801561014057600080fd5b5061015b60048036038101906101569190611257565b61036d565b005b34801561016957600080fd5b5061017261065e565b60405161017f919061157e565b60405180910390f35b34801561019457600080fd5b506101af60048036038101906101aa9190611257565b610682565b005b3480156101bd57600080fd5b506101d860048036038101906101d3919061122e565b6108ec565b6040516101eb9796959493929190611599565b60405180910390f35b34801561020057600080fd5b5061021b6004803603810190610216919061122e565b61099b565b604051610228919061157e565b60405180910390f35b61024b6004803603810190610246919061122e565b6109fe565b005b34801561025957600080fd5b50610274600480360381019061026f919061122e565b610def565b6040516102819190611463565b60405180910390f35b34801561029657600080fd5b506102b160048036038101906102ac91906111df565b610e6c565b005b600080821180156102c657506001548211155b610305576040517f08c379a00000000000000000000000000000000000000000000000000000000081526004016102fc9061153e565b60405180910390fd5b6002600083815260200190815260200160002060050160009054906101000a900473ffffffffffffffffffffffffffffffffffffffff169050919050565b7f000000000000000000000000000000000000000000000000000000000000000081565b60015481565b61037561115b565b600060026000848152602001908152602001600020905060008311801561039e57506001548311155b6103dd576040517f08c379a00000000000000000000000000000000000000000000000000000000081526004016103d49061151e565b60405180910390fd5b8060040160149054906101000a900460ff1661042e576040517f08c379a0000000000000000000000000000000000000000000000000000000008152600401610425906114fe565b60405180910390fd5b60008211610471576040517f08c379a00000000000000000000000000000000000000000000000000000000081526004016104689061149e565b60405180910390fd5b3373ffffffffffffffffffffffffffffffffffffffff168160050160009054906101000a900473ffffffffffffffffffffffffffffffffffffffff1673ffffffffffffffffffffffffffffffffffffffff1614610503576040517f08c379a00000000000000000000000000000000000000000000000000000000081526004016104fa906114be565b60405180910390fd5b81816003018190555060008160040160146101000a81548160ff0219169083151502179055508060010160009054906101000a900473ffffffffffffffffffffffffffffffffffffffff1673ffffffffffffffffffffffffffffffffffffffff166323b872dd333084600201546040518463ffffffff1660e01b815260040161058e9392919061142c565b600060405180830381600087803b1580156105a857600080fd5b505af11580156105bc573d6000803e3d6000fd5b505050503373ffffffffffffffffffffffffffffffffffffffff168160010160009054906101000a900473ffffffffffffffffffffffffffffffffffffffff1673ffffffffffffffffffffffffffffffffffffffff167f655a0cf9c8db81512be9a76dc1c5ae5380b8816ce6ad659cd61b715e2999d59a8584600201548660405161064993929190611608565b60405180910390a35061065a6111ab565b5050565b7f000000000000000000000000000000000000000000000000000000000000000081565b61068a61115b565b60006002600084815260200190815260200160002090506000831180156106b357506001548311155b6106f2576040517f08c379a00000000000000000000000000000000000000000000000000000000081526004016106e99061151e565b60405180910390fd5b8060040160149054906101000a900460ff1615610744576040517f08c379a000000000000000000000000000000000000000000000000000000000815260040161073b9061147e565b60405180910390fd5b60008211610787576040517f08c379a000000000000000000000000000000000000000000000000000000000815260040161077e9061149e565b60405180910390fd5b3373ffffffffffffffffffffffffffffffffffffffff168160050160009054906101000a900473ffffffffffffffffffffffffffffffffffffffff1673ffffffffffffffffffffffffffffffffffffffff1614610819576040517f08c379a0000000000000000000000000000000000000000000000000000000008152600401610810906114be565b60405180910390fd5b8181600301819055508060040160009054906101000a900473ffffffffffffffffffffffffffffffffffffffff1673ffffffffffffffffffffffffffffffffffffffff168160010160009054906101000a900473ffffffffffffffffffffffffffffffffffffffff1673ffffffffffffffffffffffffffffffffffffffff167f655a0cf9c8db81512be9a76dc1c5ae5380b8816ce6ad659cd61b715e2999d59a8360000154846002015485600301546040516108d793929190611608565b60405180910390a3506108e86111ab565b5050565b60026020528060005260406000206000915090508060000154908060010160009054906101000a900473ffffffffffffffffffffffffffffffffffffffff16908060020154908060030154908060040160009054906101000a900473ffffffffffffffffffffffffffffffffffffffff16908060040160149054906101000a900460ff16908060050160009054906101000a900473ffffffffffffffffffffffffffffffffffffffff16905087565b600060647f000000000000000000000000000000000000000000000000000000000000000060646109cc9190611695565b60026000858152602001908152602001600020600301546109ed919061171c565b6109f791906116eb565b9050919050565b610a0661115b565b6000610a118261099b565b90506000600260008481526020019081526020016000209050600083118015610a3c57506001548311155b610a7b576040517f08c379a0000000000000000000000000000000000000000000000000000000008152600401610a729061151e565b60405180910390fd5b81341015610abe576040517f08c379a0000000000000000000000000000000000000000000000000000000008152600401610ab5906114de565b60405180910390fd5b8060040160149054906101000a900460ff1615610b10576040517f08c379a0000000000000000000000000000000000000000000000000000000008152600401610b079061147e565b60405180910390fd5b8060040160009054906101000a900473ffffffffffffffffffffffffffffffffffffffff1673ffffffffffffffffffffffffffffffffffffffff166108fc82600301549081150290604051600060405180830381858888f19350505050158015610b7e573d6000803e3d6000fd5b507f000000000000000000000000000000000000000000000000000000000000000073ffffffffffffffffffffffffffffffffffffffff166108fc826003015484610bc99190611776565b9081150290604051600060405180830381858888f19350505050158015610bf4573d6000803e3d6000fd5b5060018160040160146101000a81548160ff021916908315150217905550338160050160006101000a81548173ffffffffffffffffffffffffffffffffffffffff021916908373ffffffffffffffffffffffffffffffffffffffff1602179055508060010160009054906101000a900473ffffffffffffffffffffffffffffffffffffffff1673ffffffffffffffffffffffffffffffffffffffff166323b872dd303384600201546040518463ffffffff1660e01b8152600401610cba9392919061142c565b600060405180830381600087803b158015610cd457600080fd5b505af1158015610ce8573d6000803e3d6000fd5b505050503373ffffffffffffffffffffffffffffffffffffffff168160040160009054906101000a900473ffffffffffffffffffffffffffffffffffffffff1673ffffffffffffffffffffffffffffffffffffffff168260010160009054906101000a900473ffffffffffffffffffffffffffffffffffffffff1673ffffffffffffffffffffffffffffffffffffffff167fd32fcdf45f996679783db91e8c5e3d4f5a59003d5c0f9d587d14d94baf6294d486856002015486600301548760050160009054906101000a900473ffffffffffffffffffffffffffffffffffffffff16604051610dda949392919061163f565b60405180910390a45050610dec6111ab565b50565b60008082118015610e0257506001548211155b610e41576040517f08c379a0000000000000000000000000000000000000000000000000000000008152600401610e389061153e565b60405180910390fd5b6002600083815260200190815260200160002060040160149054906101000a900460ff169050919050565b610e7461115b565b60008111610eb7576040517f08c379a0000000000000000000000000000000000000000000000000000000008152600401610eae9061149e565b60405180910390fd5b60016000815480929190610eca9061183a565b91905055508273ffffffffffffffffffffffffffffffffffffffff166323b872dd3330856040518463ffffffff1660e01b8152600401610f0c9392919061142c565b600060405180830381600087803b158015610f2657600080fd5b505af1158015610f3a573d6000803e3d6000fd5b505050506040518060e0016040528060015481526020018473ffffffffffffffffffffffffffffffffffffffff1681526020018381526020018281526020013373ffffffffffffffffffffffffffffffffffffffff1681526020016000151581526020013373ffffffffffffffffffffffffffffffffffffffff168152506002600060015481526020019081526020016000206000820151816000015560208201518160010160006101000a81548173ffffffffffffffffffffffffffffffffffffffff021916908373ffffffffffffffffffffffffffffffffffffffff160217905550604082015181600201556060820151816003015560808201518160040160006101000a81548173ffffffffffffffffffffffffffffffffffffffff021916908373ffffffffffffffffffffffffffffffffffffffff16021790555060a08201518160040160146101000a81548160ff02191690831515021790555060c08201518160050160006101000a81548173ffffffffffffffffffffffffffffffffffffffff021916908373ffffffffffffffffffffffffffffffffffffffff1602179055509050503373ffffffffffffffffffffffffffffffffffffffff168373ffffffffffffffffffffffffffffffffffffffff167f655a0cf9c8db81512be9a76dc1c5ae5380b8816ce6ad659cd61b715e2999d59a600154858560405161114693929190611608565b60405180910390a36111566111ab565b505050565b600260005414156111a1576040517f08c379a00000000000000000000000000000000000000000000000000000000081526004016111989061155e565b60405180910390fd5b6002600081905550565b6001600081905550565b6000813590506111c481611a4f565b92915050565b6000813590506111d981611a66565b92915050565b6000806000606084860312156111f457600080fd5b6000611202868287016111b5565b9350506020611213868287016111ca565b9250506040611224868287016111ca565b9150509250925092565b60006020828403121561124057600080fd5b600061124e848285016111ca565b91505092915050565b6000806040838503121561126a57600080fd5b6000611278858286016111ca565b9250506020611289858286016111ca565b9150509250929050565b61129c816117bc565b82525050565b6112ab816117aa565b82525050565b6112ba816117ce565b82525050565b6112c981611816565b82525050565b60006112dc601183611684565b91506112e7826118e1565b602082019050919050565b60006112ff601f83611684565b915061130a8261190a565b602082019050919050565b6000611322601a83611684565b915061132d82611933565b602082019050919050565b6000611345603383611684565b91506113508261195c565b604082019050919050565b6000611368600d83611684565b9150611373826119ab565b602082019050919050565b600061138b601283611684565b9150611396826119d4565b602082019050919050565b60006113ae601283611684565b91506113b9826119fd565b602082019050919050565b60006113d1601f83611684565b91506113dc82611a26565b602082019050919050565b6113f08161180c565b82525050565b600060208201905061140b60008301846112a2565b92915050565b60006020820190506114266000830184611293565b92915050565b600060608201905061144160008301866112a2565b61144e60208301856112a2565b61145b60408301846113e7565b949350505050565b600060208201905061147860008301846112b1565b92915050565b60006020820190508181036000830152611497816112cf565b9050919050565b600060208201905081810360008301526114b7816112f2565b9050919050565b600060208201905081810360008301526114d781611315565b9050919050565b600060208201905081810360008301526114f781611338565b9050919050565b600060208201905081810360008301526115178161135b565b9050919050565b600060208201905081810360008301526115378161137e565b9050919050565b60006020820190508181036000830152611557816113a1565b9050919050565b60006020820190508181036000830152611577816113c4565b9050919050565b600060208201905061159360008301846113e7565b92915050565b600060e0820190506115ae600083018a6113e7565b6115bb60208301896112c0565b6115c860408301886113e7565b6115d560608301876113e7565b6115e26080830186611293565b6115ef60a08301856112b1565b6115fc60c08301846112a2565b98975050505050505050565b600060608201905061161d60008301866113e7565b61162a60208301856113e7565b61163760408301846113e7565b949350505050565b600060808201905061165460008301876113e7565b61166160208301866113e7565b61166e60408301856113e7565b61167b60608301846112a2565b95945050505050565b600082825260208201905092915050565b60006116a08261180c565b91506116ab8361180c565b9250827fffffffffffffffffffffffffffffffffffffffffffffffffffffffffffffffff038211156116e0576116df611883565b5b828201905092915050565b60006116f68261180c565b91506117018361180c565b925082611711576117106118b2565b5b828204905092915050565b60006117278261180c565b91506117328361180c565b9250817fffffffffffffffffffffffffffffffffffffffffffffffffffffffffffffffff048311821515161561176b5761176a611883565b5b828202905092915050565b60006117818261180c565b915061178c8361180c565b92508282101561179f5761179e611883565b5b828203905092915050565b60006117b5826117ec565b9050919050565b60006117c7826117ec565b9050919050565b60008115159050919050565b60006117e5826117aa565b9050919050565b600073ffffffffffffffffffffffffffffffffffffffff82169050919050565b6000819050919050565b600061182182611828565b9050919050565b6000611833826117ec565b9050919050565b60006118458261180c565b91507fffffffffffffffffffffffffffffffffffffffffffffffffffffffffffffffff82141561187857611877611883565b5b600182019050919050565b7f4e487b7100000000000000000000000000000000000000000000000000000000600052601160045260246000fd5b7f4e487b7100000000000000000000000000000000000000000000000000000000600052601260045260246000fd5b7f6974656d20616c726561647920736f6c64000000000000000000000000000000600082015250565b7f5072696365206d7573742062652067726561746572207468616e207a65726f00600082015250565b7f4f6e6c79206974656d206f776e65722063616e2072656c697374000000000000600082015250565b7f6e6f7420656e6f75676820657468657220746f20636f766572206974656d207060008201527f7269636520616e64206d61726b65742066656500000000000000000000000000602082015250565b7f4974656d206e6f7420736f6c6400000000000000000000000000000000000000600082015250565b7f6974656d20646f65736e27742065786973740000000000000000000000000000600082015250565b7f4974656d20646f65736e27742065786973740000000000000000000000000000600082015250565b7f5265656e7472616e637947756172643a207265656e7472616e742063616c6c00600082015250565b611a58816117da565b8114611a6357600080fd5b50565b611a6f8161180c565b8114611a7a57600080fd5b5056fea2646970667358221220011671173755c0eb3dde84b5ac356ad59adf32ce44376196eb59146a5f6b0f5964736f6c63430008040033",
  "linkReferences": {},
  "deployedLinkReferences": {}
}