{
  "_format": "hh-sol-artifact-1",
  "contractName": "Marketplace",
  "sourceName": "src/backend/contracts/Marketplace.sol",
  "abi": [
    {
      "inputs": [
        {
          "internalType": "uint256",
          "name": "_feePercent",
          "type": "uint256"
        }
      ],
      "stateMutability": "nonpayable",
      "type": "constructor"
    },
    {
      "anonymous": false,
      "inputs": [
        {
          "indexed": false,
          "internalType": "uint256",
          "name": "itemId",
          "type": "uint256"
        },
        {
          "indexed": true,
          "internalType": "address",
          "name": "nft",
          "type": "address"
        },
        {
          "indexed": false,
          "internalType": "uint256",
          "name": "tokenId",
          "type": "uint256"
        },
        {
          "indexed": false,
          "internalType": "uint256",
          "name": "price",
          "type": "uint256"
        },
        {
          "indexed": true,
          "internalType": "address",
          "name": "seller",
          "type": "address"
        },
        {
          "indexed": true,
          "internalType": "address",
          "name": "buyer",
          "type": "address"
        }
      ],
      "name": "Bought",
      "type": "event"
    },
    {
      "anonymous": false,
      "inputs": [
        {
          "indexed": false,
          "internalType": "uint256",
          "name": "itemId",
          "type": "uint256"
        },
        {
          "indexed": true,
          "internalType": "address",
          "name": "nft",
          "type": "address"
        },
        {
          "indexed": false,
          "internalType": "uint256",
          "name": "tokenId",
          "type": "uint256"
        },
        {
          "indexed": false,
          "internalType": "uint256",
          "name": "price",
          "type": "uint256"
        },
        {
          "indexed": true,
          "internalType": "address",
          "name": "seller",
          "type": "address"
        }
      ],
      "name": "Offered",
      "type": "event"
    },
    {
      "anonymous": false,
      "inputs": [
        {
          "indexed": false,
          "internalType": "uint256",
          "name": "itemId",
          "type": "uint256"
        },
        {
          "indexed": false,
          "internalType": "uint256",
          "name": "price",
          "type": "uint256"
        },
        {
          "indexed": true,
          "internalType": "address",
          "name": "seller",
          "type": "address"
        }
      ],
      "name": "PriceUpdated",
      "type": "event"
    },
    {
      "inputs": [],
      "name": "feeAccount",
      "outputs": [
        {
          "internalType": "address payable",
          "name": "",
          "type": "address"
        }
      ],
      "stateMutability": "view",
      "type": "function"
    },
    {
      "inputs": [],
      "name": "feePercent",
      "outputs": [
        {
          "internalType": "uint256",
          "name": "",
          "type": "uint256"
        }
      ],
      "stateMutability": "view",
      "type": "function"
    },
    {
      "inputs": [
        {
          "internalType": "uint256",
          "name": "_itemId",
          "type": "uint256"
        }
      ],
      "name": "getTotalPrice",
      "outputs": [
        {
          "internalType": "uint256",
          "name": "",
          "type": "uint256"
        }
      ],
      "stateMutability": "view",
      "type": "function"
    },
    {
      "inputs": [],
      "name": "itemCount",
      "outputs": [
        {
          "internalType": "uint256",
          "name": "",
          "type": "uint256"
        }
      ],
      "stateMutability": "view",
      "type": "function"
    },
    {
      "inputs": [
        {
          "internalType": "uint256",
          "name": "",
          "type": "uint256"
        }
      ],
      "name": "items",
      "outputs": [
        {
          "internalType": "uint256",
          "name": "itemId",
          "type": "uint256"
        },
        {
          "internalType": "contract IERC721",
          "name": "nft",
          "type": "address"
        },
        {
          "internalType": "uint256",
          "name": "tokenId",
          "type": "uint256"
        },
        {
          "internalType": "uint256",
          "name": "price",
          "type": "uint256"
        },
        {
          "internalType": "address payable",
          "name": "seller",
          "type": "address"
        },
        {
          "internalType": "bool",
          "name": "sold",
          "type": "bool"
        }
      ],
      "stateMutability": "view",
      "type": "function"
    },
    {
      "inputs": [
        {
          "internalType": "contract IERC721",
          "name": "_nft",
          "type": "address"
        },
        {
          "internalType": "uint256",
          "name": "_tokenId",
          "type": "uint256"
        },
        {
          "internalType": "uint256",
          "name": "_price",
          "type": "uint256"
        }
      ],
      "name": "makeItem",
      "outputs": [],
      "stateMutability": "nonpayable",
      "type": "function"
    },
    {
      "inputs": [
        {
          "internalType": "uint256",
          "name": "_itemId",
          "type": "uint256"
        }
      ],
      "name": "purchaseItem",
      "outputs": [],
      "stateMutability": "payable",
      "type": "function"
    },
    {
      "inputs": [
        {
          "internalType": "uint256",
          "name": "_itemId",
          "type": "uint256"
        },
        {
          "internalType": "uint256",
          "name": "_newPrice",
          "type": "uint256"
        }
      ],
      "name": "relistItem",
      "outputs": [],
      "stateMutability": "nonpayable",
      "type": "function"
    },
    {
      "inputs": [
        {
          "internalType": "uint256",
          "name": "_itemId",
          "type": "uint256"
        },
        {
          "internalType": "uint256",
          "name": "_newPrice",
          "type": "uint256"
        }
      ],
      "name": "updatePrice",
      "outputs": [],
      "stateMutability": "nonpayable",
      "type": "function"
    }
  ],
  "bytecode": "0x60c06040523480156200001157600080fd5b50604051620015c9380380620015c983398181016040528101906200003791906200009c565b60016000819055503373ffffffffffffffffffffffffffffffffffffffff1660808173ffffffffffffffffffffffffffffffffffffffff1660601b815250508060a0818152505050620000ec565b6000815190506200009681620000d2565b92915050565b600060208284031215620000af57600080fd5b6000620000bf8482850162000085565b91505092915050565b6000819050919050565b620000dd81620000c8565b8114620000e957600080fd5b50565b60805160601c60a0516114a66200012360003960008181610374015261063e015260008181610224015261081e01526114a66000f3fe6080604052600436106100865760003560e01c806382367b2d1161005957806382367b2d14610135578063bfb231d21461015e578063ca7dd375146101a0578063d38ea5bf146101dd578063fa00afc7146101f957610086565b806365e17c9d1461008b5780636bfb0d01146100b657806375ad1b12146100e15780637fd6f15c1461010a575b600080fd5b34801561009757600080fd5b506100a0610222565b6040516100ad9190610f04565b60405180910390f35b3480156100c257600080fd5b506100cb610246565b6040516100d89190611016565b60405180910390f35b3480156100ed57600080fd5b5061010860048036038101906101039190610dab565b61024c565b005b34801561011657600080fd5b5061011f610372565b60405161012c9190611016565b60405180910390f35b34801561014157600080fd5b5061015c60048036038101906101579190610dab565b610396565b005b34801561016a57600080fd5b5061018560048036038101906101809190610d82565b6105af565b60405161019796959493929190611031565b60405180910390f35b3480156101ac57600080fd5b506101c760048036038101906101c29190610d82565b610638565b6040516101d49190611016565b60405180910390f35b6101f760048036038101906101f29190610d82565b61069b565b005b34801561020557600080fd5b50610220600480360381019061021b9190610d33565b610a23565b005b7f000000000000000000000000000000000000000000000000000000000000000081565b60015481565b610254610caf565b6000600260008481526020019081526020016000209050600082116102ae576040517f08c379a00000000000000000000000000000000000000000000000000000000081526004016102a590610f96565b60405180910390fd5b81816003018190555060008160040160146101000a81548160ff0219169083151502179055503373ffffffffffffffffffffffffffffffffffffffff168160010160009054906101000a900473ffffffffffffffffffffffffffffffffffffffff1673ffffffffffffffffffffffffffffffffffffffff167f655a0cf9c8db81512be9a76dc1c5ae5380b8816ce6ad659cd61b715e2999d59a8584600201548660405161035d93929190611092565b60405180910390a35061036e610cff565b5050565b7f000000000000000000000000000000000000000000000000000000000000000081565b61039e610caf565b60006002600084815260200190815260200160002090503373ffffffffffffffffffffffffffffffffffffffff168160040160009054906101000a900473ffffffffffffffffffffffffffffffffffffffff1673ffffffffffffffffffffffffffffffffffffffff1614610447576040517f08c379a000000000000000000000000000000000000000000000000000000000815260040161043e90610f56565b60405180910390fd5b8060040160149054906101000a900460ff1615610499576040517f08c379a000000000000000000000000000000000000000000000000000000000815260040161049090610f76565b60405180910390fd5b600082116104dc576040517f08c379a00000000000000000000000000000000000000000000000000000000081526004016104d390610f96565b60405180910390fd5b8181600301819055508060040160009054906101000a900473ffffffffffffffffffffffffffffffffffffffff1673ffffffffffffffffffffffffffffffffffffffff168160010160009054906101000a900473ffffffffffffffffffffffffffffffffffffffff1673ffffffffffffffffffffffffffffffffffffffff167f655a0cf9c8db81512be9a76dc1c5ae5380b8816ce6ad659cd61b715e2999d59a83600001548460020154856003015460405161059a93929190611092565b60405180910390a3506105ab610cff565b5050565b60026020528060005260406000206000915090508060000154908060010160009054906101000a900473ffffffffffffffffffffffffffffffffffffffff16908060020154908060030154908060040160009054906101000a900473ffffffffffffffffffffffffffffffffffffffff16908060040160149054906101000a900460ff16905086565b600060647f0000000000000000000000000000000000000000000000000000000000000000606461066991906110da565b600260008581526020019081526020016000206003015461068a9190611161565b6106949190611130565b9050919050565b6106a3610caf565b60006106ae82610638565b905060006002600084815260200190815260200160002090506000831180156106d957506001548311155b610718576040517f08c379a000000000000000000000000000000000000000000000000000000000815260040161070f90610fd6565b60405180910390fd5b8134101561075b576040517f08c379a000000000000000000000000000000000000000000000000000000000815260040161075290610fb6565b60405180910390fd5b8060040160149054906101000a900460ff16156107ad576040517f08c379a00000000000000000000000000000000000000000000000000000000081526004016107a490610f76565b60405180910390fd5b8060040160009054906101000a900473ffffffffffffffffffffffffffffffffffffffff1673ffffffffffffffffffffffffffffffffffffffff166108fc82600301549081150290604051600060405180830381858888f1935050505015801561081b573d6000803e3d6000fd5b507f000000000000000000000000000000000000000000000000000000000000000073ffffffffffffffffffffffffffffffffffffffff166108fc82600301548461086691906111bb565b9081150290604051600060405180830381858888f19350505050158015610891573d6000803e3d6000fd5b5060018160040160146101000a81548160ff0219169083151502179055508060010160009054906101000a900473ffffffffffffffffffffffffffffffffffffffff1673ffffffffffffffffffffffffffffffffffffffff166323b872dd303384600201546040518463ffffffff1660e01b815260040161091493929190610f1f565b600060405180830381600087803b15801561092e57600080fd5b505af1158015610942573d6000803e3d6000fd5b505050503373ffffffffffffffffffffffffffffffffffffffff168160040160009054906101000a900473ffffffffffffffffffffffffffffffffffffffff1673ffffffffffffffffffffffffffffffffffffffff168260010160009054906101000a900473ffffffffffffffffffffffffffffffffffffffff1673ffffffffffffffffffffffffffffffffffffffff167f8b4c9c8a607d67b321582dd8461041b1dc2ceeca70c8b7f37f8e02095cf2e76d8685600201548660030154604051610a0e93929190611092565b60405180910390a45050610a20610cff565b50565b610a2b610caf565b60008111610a6e576040517f08c379a0000000000000000000000000000000000000000000000000000000008152600401610a6590610f96565b60405180910390fd5b60016000815480929190610a819061127f565b91905055508273ffffffffffffffffffffffffffffffffffffffff166323b872dd3330856040518463ffffffff1660e01b8152600401610ac393929190610f1f565b600060405180830381600087803b158015610add57600080fd5b505af1158015610af1573d6000803e3d6000fd5b505050506040518060c0016040528060015481526020018473ffffffffffffffffffffffffffffffffffffffff1681526020018381526020018281526020013373ffffffffffffffffffffffffffffffffffffffff168152602001600015158152506002600060015481526020019081526020016000206000820151816000015560208201518160010160006101000a81548173ffffffffffffffffffffffffffffffffffffffff021916908373ffffffffffffffffffffffffffffffffffffffff160217905550604082015181600201556060820151816003015560808201518160040160006101000a81548173ffffffffffffffffffffffffffffffffffffffff021916908373ffffffffffffffffffffffffffffffffffffffff16021790555060a08201518160040160146101000a81548160ff0219169083151502179055509050503373ffffffffffffffffffffffffffffffffffffffff168373ffffffffffffffffffffffffffffffffffffffff167f655a0cf9c8db81512be9a76dc1c5ae5380b8816ce6ad659cd61b715e2999d59a6001548585604051610c9a93929190611092565b60405180910390a3610caa610cff565b505050565b60026000541415610cf5576040517f08c379a0000000000000000000000000000000000000000000000000000000008152600401610cec90610ff6565b60405180910390fd5b6002600081905550565b6001600081905550565b600081359050610d1881611442565b92915050565b600081359050610d2d81611459565b92915050565b600080600060608486031215610d4857600080fd5b6000610d5686828701610d09565b9350506020610d6786828701610d1e565b9250506040610d7886828701610d1e565b9150509250925092565b600060208284031215610d9457600080fd5b6000610da284828501610d1e565b91505092915050565b60008060408385031215610dbe57600080fd5b6000610dcc85828601610d1e565b9250506020610ddd85828601610d1e565b9150509250929050565b610df081611201565b82525050565b610dff816111ef565b82525050565b610e0e81611213565b82525050565b610e1d8161125b565b82525050565b6000610e30601c836110c9565b9150610e3b82611326565b602082019050919050565b6000610e536011836110c9565b9150610e5e8261134f565b602082019050919050565b6000610e76601f836110c9565b9150610e8182611378565b602082019050919050565b6000610e996033836110c9565b9150610ea4826113a1565b604082019050919050565b6000610ebc6012836110c9565b9150610ec7826113f0565b602082019050919050565b6000610edf601f836110c9565b9150610eea82611419565b602082019050919050565b610efe81611251565b82525050565b6000602082019050610f196000830184610de7565b92915050565b6000606082019050610f346000830186610df6565b610f416020830185610df6565b610f4e6040830184610ef5565b949350505050565b60006020820190508181036000830152610f6f81610e23565b9050919050565b60006020820190508181036000830152610f8f81610e46565b9050919050565b60006020820190508181036000830152610faf81610e69565b9050919050565b60006020820190508181036000830152610fcf81610e8c565b9050919050565b60006020820190508181036000830152610fef81610eaf565b9050919050565b6000602082019050818103600083015261100f81610ed2565b9050919050565b600060208201905061102b6000830184610ef5565b92915050565b600060c0820190506110466000830189610ef5565b6110536020830188610e14565b6110606040830187610ef5565b61106d6060830186610ef5565b61107a6080830185610de7565b61108760a0830184610e05565b979650505050505050565b60006060820190506110a76000830186610ef5565b6110b46020830185610ef5565b6110c16040830184610ef5565b949350505050565b600082825260208201905092915050565b60006110e582611251565b91506110f083611251565b9250827fffffffffffffffffffffffffffffffffffffffffffffffffffffffffffffffff03821115611125576111246112c8565b5b828201905092915050565b600061113b82611251565b915061114683611251565b925082611156576111556112f7565b5b828204905092915050565b600061116c82611251565b915061117783611251565b9250817fffffffffffffffffffffffffffffffffffffffffffffffffffffffffffffffff04831182151516156111b0576111af6112c8565b5b828202905092915050565b60006111c682611251565b91506111d183611251565b9250828210156111e4576111e36112c8565b5b828203905092915050565b60006111fa82611231565b9050919050565b600061120c82611231565b9050919050565b60008115159050919050565b600061122a826111ef565b9050919050565b600073ffffffffffffffffffffffffffffffffffffffff82169050919050565b6000819050919050565b60006112668261126d565b9050919050565b600061127882611231565b9050919050565b600061128a82611251565b91507fffffffffffffffffffffffffffffffffffffffffffffffffffffffffffffffff8214156112bd576112bc6112c8565b5b600182019050919050565b7f4e487b7100000000000000000000000000000000000000000000000000000000600052601160045260246000fd5b7f4e487b7100000000000000000000000000000000000000000000000000000000600052601260045260246000fd5b7f6f6e6c792073656c6c65722063616e2075706461746520707269636500000000600082015250565b7f6974656d20616c726561647920736f6c64000000000000000000000000000000600082015250565b7f5072696365206d7573742062652067726561746572207468616e207a65726f00600082015250565b7f6e6f7420656e6f75676820657468657220746f20636f766572206974656d207060008201527f7269636520616e64206d61726b65742066656500000000000000000000000000602082015250565b7f6974656d20646f65736e27742065786973740000000000000000000000000000600082015250565b7f5265656e7472616e637947756172643a207265656e7472616e742063616c6c00600082015250565b61144b8161121f565b811461145657600080fd5b50565b61146281611251565b811461146d57600080fd5b5056fea264697066735822122013bfb303ab99def694e1e7a2119a02e5cf7a1baee2a10378406dbf4b08ab652864736f6c63430008040033",
  "linkReferences": {},
  "deployedLinkReferences": {}
}